{
    "_format": "hh-sol-artifact-1",
    "contractName": "LoyaltyToken",
    "sourceName": "contracts/LoyaltyToken.sol",
    "abi": [
        {
            "inputs": [
                {
                    "internalType": "string",
                    "name": "tokenName",
                    "type": "string"
                },
                {
                    "internalType": "string",
                    "name": "tokenSymbol",
                    "type": "string"
                },
                {
                    "internalType": "uint8",
                    "name": "tokenDecimals",
                    "type": "uint8"
                },
                {
                    "internalType": "address",
                    "name": "initialOwner",
                    "type": "address"
                }
            ],
            "stateMutability": "nonpayable",
            "type": "constructor"
        },
        {
            "inputs": [
                {
                    "internalType": "address",
                    "name": "owner",
                    "type": "address"
                }
            ],
            "name": "OwnableInvalidOwner",
            "type": "error"
        },
        {
            "inputs": [
                {
                    "internalType": "address",
                    "name": "account",
                    "type": "address"
                }
            ],
            "name": "OwnableUnauthorizedAccount",
            "type": "error"
        },
        {
            "anonymous": false,
            "inputs": [
                {
                    "indexed": true,
                    "internalType": "address",
                    "name": "previousOwner",
                    "type": "address"
                },
                {
                    "indexed": true,
                    "internalType": "address",
                    "name": "newOwner",
                    "type": "address"
                }
            ],
            "name": "OwnershipTransferred",
            "type": "event"
        },
        {
            "anonymous": false,
            "inputs": [
                {
                    "indexed": true,
                    "internalType": "address",
                    "name": "customer",
                    "type": "address"
                },
                {
                    "indexed": false,
                    "internalType": "uint256",
                    "name": "amount",
                    "type": "uint256"
                }
            ],
            "name": "PointsIssued",
            "type": "event"
        },
        {
            "anonymous": false,
            "inputs": [
                {
                    "indexed": true,
                    "internalType": "address",
                    "name": "customer",
                    "type": "address"
                },
                {
                    "indexed": false,
                    "internalType": "uint256",
                    "name": "amount",
                    "type": "uint256"
                }
            ],
            "name": "PointsRedeemed",
            "type": "event"
        },
        {
            "inputs": [
                {
                    "internalType": "address",
                    "name": "account",
                    "type": "address"
                }
            ],
            "name": "balanceOf",
            "outputs": [
                {
                    "internalType": "uint256",
                    "name": "",
                    "type": "uint256"
                }
            ],
            "stateMutability": "view",
            "type": "function"
        },
        {
            "inputs": [],
            "name": "decimals",
            "outputs": [
                {
                    "internalType": "uint8",
                    "name": "",
                    "type": "uint8"
                }
            ],
            "stateMutability": "view",
            "type": "function"
        },
        {
            "inputs": [
                {
                    "internalType": "address",
                    "name": "customer",
                    "type": "address"
                },
                {
                    "internalType": "uint256",
                    "name": "amount",
                    "type": "uint256"
                }
            ],
            "name": "issuePoints",
            "outputs": [],
            "stateMutability": "nonpayable",
            "type": "function"
        },
        {
            "inputs": [],
            "name": "name",
            "outputs": [
                {
                    "internalType": "string",
                    "name": "",
                    "type": "string"
                }
            ],
            "stateMutability": "view",
            "type": "function"
        },
        {
            "inputs": [],
            "name": "owner",
            "outputs": [
                {
                    "internalType": "address",
                    "name": "",
                    "type": "address"
                }
            ],
            "stateMutability": "view",
            "type": "function"
        },
        {
            "inputs": [
                {
                    "internalType": "uint256",
                    "name": "amount",
                    "type": "uint256"
                }
            ],
            "name": "redeemPoints",
            "outputs": [],
            "stateMutability": "nonpayable",
            "type": "function"
        },
        {
            "inputs": [],
            "name": "renounceOwnership",
            "outputs": [],
            "stateMutability": "nonpayable",
            "type": "function"
        },
        {
            "inputs": [],
            "name": "symbol",
            "outputs": [
                {
                    "internalType": "string",
                    "name": "",
                    "type": "string"
                }
            ],
            "stateMutability": "view",
            "type": "function"
        },
        {
            "inputs": [],
            "name": "totalSupply",
            "outputs": [
                {
                    "internalType": "uint256",
                    "name": "",
                    "type": "uint256"
                }
            ],
            "stateMutability": "view",
            "type": "function"
        },
        {
            "inputs": [
                {
                    "internalType": "address",
                    "name": "newOwner",
                    "type": "address"
                }
            ],
            "name": "transferOwnership",
            "outputs": [],
            "stateMutability": "nonpayable",
            "type": "function"
        }
    ],
    "bytecode": "0x60806040523480156200001157600080fd5b506040516200172838038062001728833981810160405281019062000037919062000402565b80600073ffffffffffffffffffffffffffffffffffffffff168173ffffffffffffffffffffffffffffffffffffffff1603620000ad5760006040517f1e4fbdf7000000000000000000000000000000000000000000000000000000008152600401620000a49190620004c3565b60405180910390fd5b620000be816200010860201b60201c565b508360019081620000d091906200072b565b508260029081620000e291906200072b565b5081600360006101000a81548160ff021916908360ff1602179055505050505062000812565b60008060009054906101000a900473ffffffffffffffffffffffffffffffffffffffff169050816000806101000a81548173ffffffffffffffffffffffffffffffffffffffff021916908373ffffffffffffffffffffffffffffffffffffffff1602179055508173ffffffffffffffffffffffffffffffffffffffff168173ffffffffffffffffffffffffffffffffffffffff167f8be0079c531659141344cd1fd0a4f28419497f9722a3daafe3b4186f6b6457e060405160405180910390a35050565b6000604051905090565b600080fd5b600080fd5b600080fd5b600080fd5b6000601f19601f8301169050919050565b7f4e487b7100000000000000000000000000000000000000000000000000000000600052604160045260246000fd5b6200023582620001ea565b810181811067ffffffffffffffff82111715620002575762000256620001fb565b5b80604052505050565b60006200026c620001cc565b90506200027a82826200022a565b919050565b600067ffffffffffffffff8211156200029d576200029c620001fb565b5b620002a882620001ea565b9050602081019050919050565b60005b83811015620002d5578082015181840152602081019050620002b8565b60008484015250505050565b6000620002f8620002f2846200027f565b62000260565b905082815260208101848484011115620003175762000316620001e5565b5b62000324848285620002b5565b509392505050565b600082601f830112620003445762000343620001e0565b5b815162000356848260208601620002e1565b91505092915050565b600060ff82169050919050565b62000377816200035f565b81146200038357600080fd5b50565b60008151905062000397816200036c565b92915050565b600073ffffffffffffffffffffffffffffffffffffffff82169050919050565b6000620003ca826200039d565b9050919050565b620003dc81620003bd565b8114620003e857600080fd5b50565b600081519050620003fc81620003d1565b92915050565b600080600080608085870312156200041f576200041e620001d6565b5b600085015167ffffffffffffffff81111562000440576200043f620001db565b5b6200044e878288016200032c565b945050602085015167ffffffffffffffff811115620004725762000471620001db565b5b62000480878288016200032c565b9350506040620004938782880162000386565b9250506060620004a687828801620003eb565b91505092959194509250565b620004bd81620003bd565b82525050565b6000602082019050620004da6000830184620004b2565b92915050565b600081519050919050565b7f4e487b7100000000000000000000000000000000000000000000000000000000600052602260045260246000fd5b600060028204905060018216806200053357607f821691505b602082108103620005495762000548620004eb565b5b50919050565b60008190508160005260206000209050919050565b60006020601f8301049050919050565b600082821b905092915050565b600060088302620005b37fffffffffffffffffffffffffffffffffffffffffffffffffffffffffffffffff8262000574565b620005bf868362000574565b95508019841693508086168417925050509392505050565b6000819050919050565b6000819050919050565b60006200060c620006066200060084620005d7565b620005e1565b620005d7565b9050919050565b6000819050919050565b6200062883620005eb565b62000640620006378262000613565b84845462000581565b825550505050565b600090565b6200065762000648565b620006648184846200061d565b505050565b5b818110156200068c57620006806000826200064d565b6001810190506200066a565b5050565b601f821115620006db57620006a5816200054f565b620006b08462000564565b81016020851015620006c0578190505b620006d8620006cf8562000564565b83018262000669565b50505b505050565b600082821c905092915050565b60006200070060001984600802620006e0565b1980831691505092915050565b60006200071b8383620006ed565b9150826002028217905092915050565b6200073682620004e0565b67ffffffffffffffff811115620007525762000751620001fb565b5b6200075e82546200051a565b6200076b82828562000690565b600060209050601f831160018114620007a357600084156200078e578287015190505b6200079a85826200070d565b8655506200080a565b601f198416620007b3866200054f565b60005b82811015620007dd57848901518255600182019150602085019450602081019050620007b6565b86831015620007fd5784890151620007f9601f891682620006ed565b8355505b6001600288020188555050505b505050505050565b610f0680620008226000396000f3fe608060405234801561001057600080fd5b506004361061009e5760003560e01c80638da5cb5b116100665780638da5cb5b1461013757806395d89b4114610155578063da20569e14610173578063e92e92e71461018f578063f2fde38b146101ab5761009e565b806306fdde03146100a357806318160ddd146100c1578063313ce567146100df57806370a08231146100fd578063715018a61461012d575b600080fd5b6100ab6101c7565b6040516100b8919061096b565b60405180910390f35b6100c9610255565b6040516100d691906109a6565b60405180910390f35b6100e761025f565b6040516100f491906109dd565b60405180910390f35b61011760048036038101906101129190610a5b565b610272565b60405161012491906109a6565b60405180910390f35b6101356102bb565b005b61013f6102cf565b60405161014c9190610a97565b60405180910390f35b61015d6102f8565b60405161016a919061096b565b60405180910390f35b61018d60048036038101906101889190610ade565b610386565b005b6101a960048036038101906101a49190610b1e565b610501565b005b6101c560048036038101906101c09190610a5b565b610702565b005b600180546101d490610b7a565b80601f016020809104026020016040519081016040528092919081815260200182805461020090610b7a565b801561024d5780601f106102225761010080835404028352916020019161024d565b820191906000526020600020905b81548152906001019060200180831161023057829003601f168201915b505050505081565b6000600554905090565b600360009054906101000a900460ff1681565b6000600460008373ffffffffffffffffffffffffffffffffffffffff1673ffffffffffffffffffffffffffffffffffffffff168152602001908152602001600020549050919050565b6102c3610788565b6102cd600061080f565b565b60008060009054906101000a900473ffffffffffffffffffffffffffffffffffffffff16905090565b6002805461030590610b7a565b80601f016020809104026020016040519081016040528092919081815260200182805461033190610b7a565b801561037e5780601f106103535761010080835404028352916020019161037e565b820191906000526020600020905b81548152906001019060200180831161036157829003601f168201915b505050505081565b61038e610788565b600073ffffffffffffffffffffffffffffffffffffffff168273ffffffffffffffffffffffffffffffffffffffff16036103fd576040517f08c379a00000000000000000000000000000000000000000000000000000000081526004016103f490610c1d565b60405180910390fd5b60008111610440576040517f08c379a000000000000000000000000000000000000000000000000000000000815260040161043790610c89565b60405180910390fd5b80600560008282546104529190610cd8565b9250508190555080600460008473ffffffffffffffffffffffffffffffffffffffff1673ffffffffffffffffffffffffffffffffffffffff16815260200190815260200160002060008282546104a89190610cd8565b925050819055508173ffffffffffffffffffffffffffffffffffffffff167f5522eea310695242e9a97820729914e053a3ea3ab980666463a3e6b7f4d080f1826040516104f591906109a6565b60405180910390a25050565b600061050b6108d3565b9050600073ffffffffffffffffffffffffffffffffffffffff168173ffffffffffffffffffffffffffffffffffffffff160361057c576040517f08c379a000000000000000000000000000000000000000000000000000000000815260040161057390610d7e565b60405180910390fd5b600082116105bf576040517f08c379a00000000000000000000000000000000000000000000000000000000081526004016105b690610dea565b60405180910390fd5b81600460008373ffffffffffffffffffffffffffffffffffffffff1673ffffffffffffffffffffffffffffffffffffffff168152602001908152602001600020541015610641576040517f08c379a000000000000000000000000000000000000000000000000000000000815260040161063890610e7c565b60405180910390fd5b81600460008373ffffffffffffffffffffffffffffffffffffffff1673ffffffffffffffffffffffffffffffffffffffff16815260200190815260200160002060008282546106909190610e9c565b9250508190555081600560008282546106a99190610e9c565b925050819055508073ffffffffffffffffffffffffffffffffffffffff167fc37df5d14f305277c1289e9a188a097cda6684189c95f785feb056cb77a8c910836040516106f691906109a6565b60405180910390a25050565b61070a610788565b600073ffffffffffffffffffffffffffffffffffffffff168173ffffffffffffffffffffffffffffffffffffffff160361077c5760006040517f1e4fbdf70000000000000000000000000000000000000000000000000000000081526004016107739190610a97565b60405180910390fd5b6107858161080f565b50565b6107906108d3565b73ffffffffffffffffffffffffffffffffffffffff166107ae6102cf565b73ffffffffffffffffffffffffffffffffffffffff161461080d576107d16108d3565b6040517f118cdaa70000000000000000000000000000000000000000000000000000000081526004016108049190610a97565b60405180910390fd5b565b60008060009054906101000a900473ffffffffffffffffffffffffffffffffffffffff169050816000806101000a81548173ffffffffffffffffffffffffffffffffffffffff021916908373ffffffffffffffffffffffffffffffffffffffff1602179055508173ffffffffffffffffffffffffffffffffffffffff168173ffffffffffffffffffffffffffffffffffffffff167f8be0079c531659141344cd1fd0a4f28419497f9722a3daafe3b4186f6b6457e060405160405180910390a35050565b600033905090565b600081519050919050565b600082825260208201905092915050565b60005b838110156109155780820151818401526020810190506108fa565b60008484015250505050565b6000601f19601f8301169050919050565b600061093d826108db565b61094781856108e6565b93506109578185602086016108f7565b61096081610921565b840191505092915050565b600060208201905081810360008301526109858184610932565b905092915050565b6000819050919050565b6109a08161098d565b82525050565b60006020820190506109bb6000830184610997565b92915050565b600060ff82169050919050565b6109d7816109c1565b82525050565b60006020820190506109f260008301846109ce565b92915050565b600080fd5b600073ffffffffffffffffffffffffffffffffffffffff82169050919050565b6000610a28826109fd565b9050919050565b610a3881610a1d565b8114610a4357600080fd5b50565b600081359050610a5581610a2f565b92915050565b600060208284031215610a7157610a706109f8565b5b6000610a7f84828501610a46565b91505092915050565b610a9181610a1d565b82525050565b6000602082019050610aac6000830184610a88565b92915050565b610abb8161098d565b8114610ac657600080fd5b50565b600081359050610ad881610ab2565b92915050565b60008060408385031215610af557610af46109f8565b5b6000610b0385828601610a46565b9250506020610b1485828601610ac9565b9150509250929050565b600060208284031215610b3457610b336109f8565b5b6000610b4284828501610ac9565b91505092915050565b7f4e487b7100000000000000000000000000000000000000000000000000000000600052602260045260246000fd5b60006002820490506001821680610b9257607f821691505b602082108103610ba557610ba4610b4b565b5b50919050565b7f4c6f79616c7479546f6b656e3a20697373756520746f20746865207a65726f2060008201527f6164647265737300000000000000000000000000000000000000000000000000602082015250565b6000610c076027836108e6565b9150610c1282610bab565b604082019050919050565b60006020820190508181036000830152610c3681610bfa565b9050919050565b7f4c6f79616c7479546f6b656e3a206973737565207a65726f20616d6f756e7400600082015250565b6000610c73601f836108e6565b9150610c7e82610c3d565b602082019050919050565b60006020820190508181036000830152610ca281610c66565b9050919050565b7f4e487b7100000000000000000000000000000000000000000000000000000000600052601160045260246000fd5b6000610ce38261098d565b9150610cee8361098d565b9250828201905080821115610d0657610d05610ca9565b5b92915050565b7f4c6f79616c7479546f6b656e3a2072656465656d2066726f6d20746865207a6560008201527f726f206164647265737300000000000000000000000000000000000000000000602082015250565b6000610d68602a836108e6565b9150610d7382610d0c565b604082019050919050565b60006020820190508181036000830152610d9781610d5b565b9050919050565b7f4c6f79616c7479546f6b656e3a2072656465656d207a65726f20616d6f756e74600082015250565b6000610dd46020836108e6565b9150610ddf82610d9e565b602082019050919050565b60006020820190508181036000830152610e0381610dc7565b9050919050565b7f4c6f79616c7479546f6b656e3a20696e73756666696369656e742062616c616e60008201527f636520666f7220726564656d7074696f6e000000000000000000000000000000602082015250565b6000610e666031836108e6565b9150610e7182610e0a565b604082019050919050565b60006020820190508181036000830152610e9581610e59565b9050919050565b6000610ea78261098d565b9150610eb28361098d565b9250828203905081811115610eca57610ec9610ca9565b5b9291505056fea2646970667358221220923b5b58fbd81305eb7e4120078fd9049d521291a490a8b985406bae60e4102f64736f6c63430008180033",
    "linkReferences": {},
    "deployedLinkReferences": {}
}